{
  "contractName": "EtherPredicate",
  "abi": [
    {
      "inputs": [],
      "stateMutability": "nonpayable",
      "type": "constructor"
    },
    {
      "anonymous": false,
      "inputs": [
        {
          "indexed": true,
          "internalType": "address",
          "name": "exitor",
          "type": "address"
        },
        {
          "indexed": false,
          "internalType": "uint256",
          "name": "amount",
          "type": "uint256"
        }
      ],
      "name": "ExitedEther",
      "type": "event"
    },
    {
      "anonymous": false,
      "inputs": [
        {
          "indexed": true,
          "internalType": "address",
          "name": "depositor",
          "type": "address"
        },
        {
          "indexed": true,
          "internalType": "address",
          "name": "depositReceiver",
          "type": "address"
        },
        {
          "indexed": false,
          "internalType": "uint256",
          "name": "amount",
          "type": "uint256"
        }
      ],
      "name": "LockedEther",
      "type": "event"
    },
    {
      "anonymous": false,
      "inputs": [
        {
          "indexed": true,
          "internalType": "bytes32",
          "name": "role",
          "type": "bytes32"
        },
        {
          "indexed": true,
          "internalType": "bytes32",
          "name": "previousAdminRole",
          "type": "bytes32"
        },
        {
          "indexed": true,
          "internalType": "bytes32",
          "name": "newAdminRole",
          "type": "bytes32"
        }
      ],
      "name": "RoleAdminChanged",
      "type": "event"
    },
    {
      "anonymous": false,
      "inputs": [
        {
          "indexed": true,
          "internalType": "bytes32",
          "name": "role",
          "type": "bytes32"
        },
        {
          "indexed": true,
          "internalType": "address",
          "name": "account",
          "type": "address"
        },
        {
          "indexed": true,
          "internalType": "address",
          "name": "sender",
          "type": "address"
        }
      ],
      "name": "RoleGranted",
      "type": "event"
    },
    {
      "anonymous": false,
      "inputs": [
        {
          "indexed": true,
          "internalType": "bytes32",
          "name": "role",
          "type": "bytes32"
        },
        {
          "indexed": true,
          "internalType": "address",
          "name": "account",
          "type": "address"
        },
        {
          "indexed": true,
          "internalType": "address",
          "name": "sender",
          "type": "address"
        }
      ],
      "name": "RoleRevoked",
      "type": "event"
    },
    {
      "inputs": [],
      "name": "DEFAULT_ADMIN_ROLE",
      "outputs": [
        {
          "internalType": "bytes32",
          "name": "",
          "type": "bytes32"
        }
      ],
      "stateMutability": "view",
      "type": "function"
    },
    {
      "inputs": [],
      "name": "MANAGER_ROLE",
      "outputs": [
        {
          "internalType": "bytes32",
          "name": "",
          "type": "bytes32"
        }
      ],
      "stateMutability": "view",
      "type": "function"
    },
    {
      "inputs": [],
      "name": "TOKEN_TYPE",
      "outputs": [
        {
          "internalType": "bytes32",
          "name": "",
          "type": "bytes32"
        }
      ],
      "stateMutability": "view",
      "type": "function"
    },
    {
      "inputs": [],
      "name": "TRANSFER_EVENT_SIG",
      "outputs": [
        {
          "internalType": "bytes32",
          "name": "",
          "type": "bytes32"
        }
      ],
      "stateMutability": "view",
      "type": "function"
    },
    {
      "inputs": [
        {
          "internalType": "bytes32",
          "name": "role",
          "type": "bytes32"
        }
      ],
      "name": "getRoleAdmin",
      "outputs": [
        {
          "internalType": "bytes32",
          "name": "",
          "type": "bytes32"
        }
      ],
      "stateMutability": "view",
      "type": "function"
    },
    {
      "inputs": [
        {
          "internalType": "bytes32",
          "name": "role",
          "type": "bytes32"
        },
        {
          "internalType": "uint256",
          "name": "index",
          "type": "uint256"
        }
      ],
      "name": "getRoleMember",
      "outputs": [
        {
          "internalType": "address",
          "name": "",
          "type": "address"
        }
      ],
      "stateMutability": "view",
      "type": "function"
    },
    {
      "inputs": [
        {
          "internalType": "bytes32",
          "name": "role",
          "type": "bytes32"
        }
      ],
      "name": "getRoleMemberCount",
      "outputs": [
        {
          "internalType": "uint256",
          "name": "",
          "type": "uint256"
        }
      ],
      "stateMutability": "view",
      "type": "function"
    },
    {
      "inputs": [
        {
          "internalType": "bytes32",
          "name": "role",
          "type": "bytes32"
        },
        {
          "internalType": "address",
          "name": "account",
          "type": "address"
        }
      ],
      "name": "grantRole",
      "outputs": [],
      "stateMutability": "nonpayable",
      "type": "function"
    },
    {
      "inputs": [
        {
          "internalType": "bytes32",
          "name": "role",
          "type": "bytes32"
        },
        {
          "internalType": "address",
          "name": "account",
          "type": "address"
        }
      ],
      "name": "hasRole",
      "outputs": [
        {
          "internalType": "bool",
          "name": "",
          "type": "bool"
        }
      ],
      "stateMutability": "view",
      "type": "function"
    },
    {
      "inputs": [
        {
          "internalType": "bytes32",
          "name": "role",
          "type": "bytes32"
        },
        {
          "internalType": "address",
          "name": "account",
          "type": "address"
        }
      ],
      "name": "renounceRole",
      "outputs": [],
      "stateMutability": "nonpayable",
      "type": "function"
    },
    {
      "inputs": [
        {
          "internalType": "bytes32",
          "name": "role",
          "type": "bytes32"
        },
        {
          "internalType": "address",
          "name": "account",
          "type": "address"
        }
      ],
      "name": "revokeRole",
      "outputs": [],
      "stateMutability": "nonpayable",
      "type": "function"
    },
    {
      "stateMutability": "payable",
      "type": "receive"
    },
    {
      "inputs": [
        {
          "internalType": "address",
          "name": "_owner",
          "type": "address"
        }
      ],
      "name": "initialize",
      "outputs": [],
      "stateMutability": "nonpayable",
      "type": "function"
    },
    {
      "inputs": [
        {
          "internalType": "address",
          "name": "depositor",
          "type": "address"
        },
        {
          "internalType": "address",
          "name": "depositReceiver",
          "type": "address"
        },
        {
          "internalType": "address",
          "name": "",
          "type": "address"
        },
        {
          "internalType": "bytes",
          "name": "depositData",
          "type": "bytes"
        }
      ],
      "name": "lockTokens",
      "outputs": [],
      "stateMutability": "nonpayable",
      "type": "function"
    },
    {
      "inputs": [
        {
          "internalType": "address",
          "name": "",
          "type": "address"
        },
        {
          "internalType": "address",
          "name": "",
          "type": "address"
        },
        {
          "internalType": "bytes",
          "name": "log",
          "type": "bytes"
        }
      ],
      "name": "exitTokens",
      "outputs": [],
      "stateMutability": "nonpayable",
      "type": "function"
    }
  ],
  "bytecode": "0x60806040526002805460ff1916905534801561001a57600080fd5b506116128061002a6000396000f3fe6080604052600436106100e15760003560e01c8063a217fddf1161007f578063ca15c87311610059578063ca15c87314610448578063d547741f14610472578063e375b64e146104ab578063ec87621c14610549576101bc565b8063a217fddf146103eb578063b017a30f14610400578063c4d66de814610415576101bc565b8063609c92b8116100bb578063609c92b8146102715780638274664f146102865780639010d07c1461035257806391d148541461039e576101bc565b8063248a9ca3146101c15780632f2ff15d146101fd57806336568abe14610238576101bc565b366101bc57604080516b4d414e414745525f524f4c4560a01b8152905190819003600c0190206101188161011361055e565b610563565b6001906101b85760405162461bcd60e51b81526020600482019081528254600260001961010060018416150201909116046024830181905290918291604490910190849080156101a95780601f1061017e576101008083540402835291602001916101a9565b820191906000526020600020905b81548152906001019060200180831161018c57829003601f168201915b50509250505060405180910390fd5b5050005b600080fd5b3480156101cd57600080fd5b506101eb600480360360208110156101e457600080fd5b503561058a565b60408051918252519081900360200190f35b34801561020957600080fd5b506102366004803603604081101561022057600080fd5b50803590602001356001600160a01b03166105a2565b005b34801561024457600080fd5b506102366004803603604081101561025b57600080fd5b50803590602001356001600160a01b0316610609565b34801561027d57600080fd5b506101eb61066a565b34801561029257600080fd5b50610236600480360360608110156102a957600080fd5b6001600160a01b0382358116926020810135909116918101906060810160408201356401000000008111156102dd57600080fd5b8201836020820111156102ef57600080fd5b8035906020019184600183028401116401000000008311171561031157600080fd5b91908080601f016020809104026020016040519081016040528093929190818152602001838380828437600092019190915250929550610687945050505050565b34801561035e57600080fd5b506103826004803603604081101561037557600080fd5b50803590602001356108f3565b604080516001600160a01b039092168252519081900360200190f35b3480156103aa57600080fd5b506103d7600480360360408110156103c157600080fd5b50803590602001356001600160a01b0316610563565b604080519115158252519081900360200190f35b3480156103f757600080fd5b506101eb610911565b34801561040c57600080fd5b506101eb610916565b34801561042157600080fd5b506102366004803603602081101561043857600080fd5b50356001600160a01b031661093a565b34801561045457600080fd5b506101eb6004803603602081101561046b57600080fd5b50356109f8565b34801561047e57600080fd5b506102366004803603604081101561049557600080fd5b50803590602001356001600160a01b0316610a0f565b3480156104b757600080fd5b50610236600480360360808110156104ce57600080fd5b6001600160a01b038235811692602081013582169260408201359092169181019060808101606082013564010000000081111561050a57600080fd5b82018360208201111561051c57600080fd5b8035906020019184600183028401116401000000008311171561053e57600080fd5b509092509050610a68565b34801561055557600080fd5b506101eb610b60565b335b90565b6000828152602081905260408120610581908363ffffffff610b8416565b90505b92915050565b6000818152602081905260409020600201545b919050565b6000828152602081905260409020600201546105c09061011361055e565b6105fb5760405162461bcd60e51b815260040180806020018281038252602f8152602001806114b4602f913960400191505060405180910390fd5b6106058282610b99565b5050565b61061161055e565b6001600160a01b0316816001600160a01b0316146106605760405162461bcd60e51b815260040180806020018281038252602f815260200180611587602f913960400191505060405180910390fd5b6106058282610c08565b604080516422ba3432b960d91b8152905190819003600501902081565b604080516b4d414e414745525f524f4c4560a01b8152905190819003600c0190206106b48161011361055e565b60019061071a5760405162461bcd60e51b81526020600482019081528254600260001961010060018416150201909116046024830181905290918291604490910190849080156101a95780601f1061017e576101008083540402835291602001916101a9565b50606061072e61072984610c77565b610cf2565b9050606061074f8260018151811061074257fe5b6020026020010151610cf2565b90507fddf252ad1be2c89b69c2b068fc378daa952ba7f163c4a11628f55a4df523b3ef60001b6107928260008151811061078557fe5b6020026020010151610e74565b146107ce5760405162461bcd60e51b815260040180806020018281038252602181526020018061153f6021913960400191505060405180910390fd5b60006107e08260018151811061078557fe5b905060006001600160a01b03166107fd8360028151811061078557fe5b6001600160a01b031614610858576040805162461bcd60e51b815260206004820181905260248201527f45746865725072656469636174653a20494e56414c49445f5245434549564552604482015290519081900360640190fd5b806001600160a01b03167f0fc0eed41f72d3da77d0f53b9594fc7073acd15ee9d7c536819a70a67c57ef3c6108938560028151811061078557fe5b60408051918252519081900360200190a2806001600160a01b03166108fc6108c18560028151811061078557fe5b6040518115909202916000818181858888f193505050501580156108e9573d6000803e3d6000fd5b5050505050505050565b6000828152602081905260408120610581908363ffffffff610fbc16565b600081565b7fddf252ad1be2c89b69c2b068fc378daa952ba7f163c4a11628f55a4df523b3ef81565b60025460ff1615610983576040805162461bcd60e51b815260206004820152600e60248201526d185b1c9958591e481a5b9a5d195960921b604482015290519081900360640190fd5b6109b26040518060400160405280600e81526020016d457468657250726564696361746560901b815250610fc8565b6109bd6000826105fb565b604080516b4d414e414745525f524f4c4560a01b8152905190819003600c0190206109e890826105fb565b506002805460ff19166001179055565b600081815260208190526040812061058490611066565b600082815260208190526040902060020154610a2d9061011361055e565b6106605760405162461bcd60e51b81526004018080602001828103825260308152602001806114e36030913960400191505060405180910390fd5b604080516b4d414e414745525f524f4c4560a01b8152905190819003600c019020610a958161011361055e565b600190610afb5760405162461bcd60e51b81526020600482019081528254600260001961010060018416150201909116046024830181905290918291604490910190849080156101a95780601f1061017e576101008083540402835291602001916101a9565b50600083836020811015610b0e57600080fd5b5060408051913580835290519092506001600160a01b0380891692908a16917f3e799b2d61372379e767ef8f04d65089179b7a6f63f9be3065806456c7309f1b9181900360200190a350505050505050565b604080516b4d414e414745525f524f4c4560a01b8152905190819003600c01902081565b6000610581836001600160a01b038416611071565b6000828152602081905260409020610bb7908263ffffffff61108916565b1561060557610bc461055e565b6001600160a01b0316816001600160a01b0316837f2f8788117e7eff1d82e926ec794901d17c78024a50270940304540a733656f0d60405160405180910390a45050565b6000828152602081905260409020610c26908263ffffffff61109e16565b1561060557610c3361055e565b6001600160a01b0316816001600160a01b0316837ff6391f5c32d9c69d2a47ea670b442974b53935d1edc7fd64eb21e047a839171b60405160405180910390a45050565b610c7f6113df565b6000825111610cd5576040805162461bcd60e51b815260206004820152601f60248201527f524c505265616465723a20494e56414c49445f42595445535f4c454e47544800604482015290519081900360640190fd5b506040805180820190915281518152602082810190820152919050565b6060610cfd826110b3565b610d4e576040805162461bcd60e51b815260206004820152601860248201527f524c505265616465723a204954454d5f4e4f545f4c4953540000000000000000604482015290519081900360640190fd5b6000610d59836110df565b905060608167ffffffffffffffff81118015610d7457600080fd5b50604051908082528060200260200182016040528015610dae57816020015b610d9b6113df565b815260200190600190039081610d935790505b5090506000610dc0856020015161116b565b85519091508114610e025760405162461bcd60e51b81526004018080602001828103825260278152602001806115606027913960400191505060405180910390fd5b6000610e118660200151611204565b60208701510190506000805b85811015610e6857610e2e8361116b565b9150604051806040016040528083815260200184815250858281518110610e5157fe5b602090810291909101015291810191600101610e1d565b50929695505050505050565b6000610e7f826110b3565b15610ed1576040805162461bcd60e51b815260206004820181905260248201527f524c505265616465723a204445434f44494e475f4c4953545f41535f55494e54604482015290519081900360640190fd5b815160211015610f28576040805162461bcd60e51b815260206004820152601e60248201527f524c505265616465723a20494e56414c49445f55494e545f4c454e4754480000604482015290519081900360640190fd5b6000610f37836020015161116b565b83519091508114610f795760405162461bcd60e51b81526004018080602001828103825260278152602001806115b66027913960400191505060405180910390fd5b6000610f888460200151611204565b84516020808701518301805193945091849003929190831015610fb257826020036101000a820491505b5095945050505050565b60006105818383611267565b806040516020018082805190602001908083835b60208310610ffb5780518252601f199092019160209182019101610fdc565b51815160209384036101000a60001901801990921691161790527f3a20494e53554646494349454e545f5045524d495353494f4e530000000000009190930190815260408051808303600519018152601a9092019052805161060595506001945092019190506113f9565b6000610584826112cb565b60009081526001919091016020526040902054151590565b6000610581836001600160a01b0384166112cf565b6000610581836001600160a01b038416611319565b6020810151805160009190821a9060c08210156110d55760009250505061059d565b5060019392505050565b6000806000905060006110f58460200151611204565b602085015185519181019250015b80821015611162576111148261116b565b82019150808211156111575760405162461bcd60e51b815260040180806020018281038252602c815260200180611513602c913960400191505060405180910390fd5b600190920191611103565b50909392505050565b80516000908190811a608081101561118657600191506111fd565b60b881101561119b57607e19810191506111fd565b60c08110156111c85760b78103600185019450806020036101000a855104600182018101935050506111fd565b60f88110156111dd5760be19810191506111fd565b60f78103600185019450806020036101000a855104600182018101935050505b5092915050565b8051600090811a608081101561121e57600091505061059d565b60b8811080611239575060c08110801590611239575060f881105b1561124857600191505061059d565b60c081101561125c5760b51901905061059d565b60f51901905061059d565b815460009082106112a95760405162461bcd60e51b81526004018080602001828103825260228152602001806114926022913960400191505060405180910390fd5b8260000182815481106112b857fe5b9060005260206000200154905092915050565b5490565b60006112db8383611071565b61131157508154600181810184556000848152602080822090930184905584548482528286019093526040902091909155610584565b506000610584565b600081815260018301602052604081205480156113d5578354600019808301919081019060009087908390811061134c57fe5b906000526020600020015490508087600001848154811061136957fe5b60009182526020808320909101929092558281526001898101909252604090209084019055865487908061139957fe5b60019003818190600052602060002001600090559055866001016000878152602001908152602001600020600090556001945050505050610584565b6000915050610584565b604051806040016040528060008152602001600081525090565b828054600181600116156101000203166002900490600052602060002090601f016020900481019282601f1061143a57805160ff1916838001178555611467565b82800160010185558215611467579182015b8281111561146757825182559160200191906001019061144c565b50611473929150611477565b5090565b61056091905b80821115611473576000815560010161147d56fe456e756d657261626c655365743a20696e646578206f7574206f6620626f756e6473416363657373436f6e74726f6c3a2073656e646572206d75737420626520616e2061646d696e20746f206772616e74416363657373436f6e74726f6c3a2073656e646572206d75737420626520616e2061646d696e20746f207265766f6b65524c505265616465723a204e554d5f4954454d535f4445434f4445445f4c454e4754485f4d49534d4154434845746865725072656469636174653a20494e56414c49445f5349474e4154555245524c505265616465723a204c4953545f4445434f4445445f4c454e4754485f4d49534d41544348416363657373436f6e74726f6c3a2063616e206f6e6c792072656e6f756e636520726f6c657320666f722073656c66524c505265616465723a2055494e545f4445434f4445445f4c454e4754485f4d49534d41544348a26469706673582212205e8829fbfa2011c6b3f5a07fb2639a6aaf2647964ae01142fca0c3ff3893dd7764736f6c63430006060033",
  "immutableReferences": {},
  "source": "pragma solidity 0.6.6;\n\nimport {AccessControlMixin} from \"../../common/AccessControlMixin.sol\";\nimport {RLPReader} from \"../../lib/RLPReader.sol\";\nimport {ITokenPredicate} from \"./ITokenPredicate.sol\";\nimport {Initializable} from \"../../common/Initializable.sol\";\n\ncontract EtherPredicate is ITokenPredicate, AccessControlMixin, Initializable {\n    using RLPReader for bytes;\n    using RLPReader for RLPReader.RLPItem;\n\n    bytes32 public constant MANAGER_ROLE = keccak256(\"MANAGER_ROLE\");\n    bytes32 public constant TOKEN_TYPE = keccak256(\"Ether\");\n    bytes32 public constant TRANSFER_EVENT_SIG = 0xddf252ad1be2c89b69c2b068fc378daa952ba7f163c4a11628f55a4df523b3ef;\n\n    event LockedEther(\n        address indexed depositor,\n        address indexed depositReceiver,\n        uint256 amount\n    );\n\n    event ExitedEther(\n        address indexed exitor,\n        uint256 amount\n    );\n\n    constructor() public {}\n\n    function initialize(address _owner) external initializer {\n        _setupContractId(\"EtherPredicate\");\n        _setupRole(DEFAULT_ADMIN_ROLE, _owner);\n        _setupRole(MANAGER_ROLE, _owner);\n    }\n\n    /**\n     * @notice Receive Ether to lock for deposit, callable only by manager\n     */\n    receive() external payable only(MANAGER_ROLE) {}\n\n    /**\n     * @notice handle ether lock, callable only by manager\n     * @param depositor Address who wants to deposit tokens\n     * @param depositReceiver Address (address) who wants to receive tokens on child chain\n     * @param depositData ABI encoded amount\n     */\n    function lockTokens(\n        address depositor,\n        address depositReceiver,\n        address,\n        bytes calldata depositData\n    )\n        external\n        override\n        only(MANAGER_ROLE)\n    {\n        uint256 amount = abi.decode(depositData, (uint256));\n        emit LockedEther(depositor, depositReceiver, amount);\n    }\n\n    /**\n     * @notice Validates log signature, from and to address\n     * then sends the correct amount to withdrawer\n     * callable only by manager\n     * @param log Valid ERC20 burn log from child chain\n     */\n    function exitTokens(\n        address,\n        address,\n        bytes memory log\n    )\n        public\n        override\n        only(MANAGER_ROLE)\n    {\n        RLPReader.RLPItem[] memory logRLPList = log.toRlpItem().toList();\n        RLPReader.RLPItem[] memory logTopicRLPList = logRLPList[1].toList(); // topics\n\n        require(\n            bytes32(logTopicRLPList[0].toUint()) == TRANSFER_EVENT_SIG, // topic0 is event sig\n            \"EtherPredicate: INVALID_SIGNATURE\"\n        );\n\n        address withdrawer = address(logTopicRLPList[1].toUint()); // topic1 is from address\n\n        require(\n            address(logTopicRLPList[2].toUint()) == address(0), // topic2 is to address\n            \"EtherPredicate: INVALID_RECEIVER\"\n        );\n\n        emit ExitedEther(withdrawer, logRLPList[2].toUint());\n\n        payable(withdrawer).transfer(logRLPList[2].toUint());\n    }\n}\n",
  "sourcePath": "/home/graphicaldot/Programs/Matic/pos-portal/contracts/root/TokenPredicates/EtherPredicate.sol",
  "compiler": {
    "name": "solc",
    "version": "0.6.6+commit.6c089d02.Linux.g++"
  },
  "schemaVersion": "3.2.1",
  "updatedAt": "2021-02-11T18:00:51.013Z",
  "devdoc": {
    "methods": {
      "exitTokens(address,address,bytes)": {
        "params": {
          "log": "Valid ERC20 burn log from child chain"
        }
      },
      "getRoleAdmin(bytes32)": {
        "details": "Returns the admin role that controls `role`. See {grantRole} and {revokeRole}.     * To change a role's admin, use {_setRoleAdmin}."
      },
      "getRoleMember(bytes32,uint256)": {
        "details": "Returns one of the accounts that have `role`. `index` must be a value between 0 and {getRoleMemberCount}, non-inclusive.     * Role bearers are not sorted in any particular way, and their ordering may change at any point.     * WARNING: When using {getRoleMember} and {getRoleMemberCount}, make sure you perform all queries on the same block. See the following https://forum.openzeppelin.com/t/iterating-over-elements-on-enumerableset-in-openzeppelin-contracts/2296[forum post] for more information."
      },
      "getRoleMemberCount(bytes32)": {
        "details": "Returns the number of accounts that have `role`. Can be used together with {getRoleMember} to enumerate all bearers of a role."
      },
      "grantRole(bytes32,address)": {
        "details": "Grants `role` to `account`.     * If `account` had not been already granted `role`, emits a {RoleGranted} event.     * Requirements:     * - the caller must have ``role``'s admin role."
      },
      "hasRole(bytes32,address)": {
        "details": "Returns `true` if `account` has been granted `role`."
      },
      "lockTokens(address,address,address,bytes)": {
        "params": {
          "depositData": "ABI encoded amount",
          "depositReceiver": "Address (address) who wants to receive tokens on child chain",
          "depositor": "Address who wants to deposit tokens"
        }
      },
      "renounceRole(bytes32,address)": {
        "details": "Revokes `role` from the calling account.     * Roles are often managed via {grantRole} and {revokeRole}: this function's purpose is to provide a mechanism for accounts to lose their privileges if they are compromised (such as when a trusted device is misplaced).     * If the calling account had been granted `role`, emits a {RoleRevoked} event.     * Requirements:     * - the caller must be `account`."
      },
      "revokeRole(bytes32,address)": {
        "details": "Revokes `role` from `account`.     * If `account` had been granted `role`, emits a {RoleRevoked} event.     * Requirements:     * - the caller must have ``role``'s admin role."
      }
    }
  },
  "userdoc": {
    "methods": {
      "exitTokens(address,address,bytes)": {
        "notice": "Validates log signature, from and to address then sends the correct amount to withdrawer callable only by manager"
      },
      "lockTokens(address,address,address,bytes)": {
        "notice": "handle ether lock, callable only by manager"
      }
    }
  }
}