{
  "contractName": "MintableERC721Predicate",
  "abi": [
    {
      "inputs": [],
      "stateMutability": "nonpayable",
      "type": "constructor"
    },
    {
      "anonymous": false,
      "inputs": [
        {
          "indexed": true,
          "internalType": "address",
          "name": "depositor",
          "type": "address"
        },
        {
          "indexed": true,
          "internalType": "address",
          "name": "depositReceiver",
          "type": "address"
        },
        {
          "indexed": true,
          "internalType": "address",
          "name": "rootToken",
          "type": "address"
        },
        {
          "indexed": false,
          "internalType": "uint256",
          "name": "tokenId",
          "type": "uint256"
        }
      ],
      "name": "LockedMintableERC721",
      "type": "event"
    },
    {
      "anonymous": false,
      "inputs": [
        {
          "indexed": true,
          "internalType": "bytes32",
          "name": "role",
          "type": "bytes32"
        },
        {
          "indexed": true,
          "internalType": "bytes32",
          "name": "previousAdminRole",
          "type": "bytes32"
        },
        {
          "indexed": true,
          "internalType": "bytes32",
          "name": "newAdminRole",
          "type": "bytes32"
        }
      ],
      "name": "RoleAdminChanged",
      "type": "event"
    },
    {
      "anonymous": false,
      "inputs": [
        {
          "indexed": true,
          "internalType": "bytes32",
          "name": "role",
          "type": "bytes32"
        },
        {
          "indexed": true,
          "internalType": "address",
          "name": "account",
          "type": "address"
        },
        {
          "indexed": true,
          "internalType": "address",
          "name": "sender",
          "type": "address"
        }
      ],
      "name": "RoleGranted",
      "type": "event"
    },
    {
      "anonymous": false,
      "inputs": [
        {
          "indexed": true,
          "internalType": "bytes32",
          "name": "role",
          "type": "bytes32"
        },
        {
          "indexed": true,
          "internalType": "address",
          "name": "account",
          "type": "address"
        },
        {
          "indexed": true,
          "internalType": "address",
          "name": "sender",
          "type": "address"
        }
      ],
      "name": "RoleRevoked",
      "type": "event"
    },
    {
      "inputs": [],
      "name": "DEFAULT_ADMIN_ROLE",
      "outputs": [
        {
          "internalType": "bytes32",
          "name": "",
          "type": "bytes32"
        }
      ],
      "stateMutability": "view",
      "type": "function"
    },
    {
      "inputs": [],
      "name": "MANAGER_ROLE",
      "outputs": [
        {
          "internalType": "bytes32",
          "name": "",
          "type": "bytes32"
        }
      ],
      "stateMutability": "view",
      "type": "function"
    },
    {
      "inputs": [],
      "name": "TOKEN_TYPE",
      "outputs": [
        {
          "internalType": "bytes32",
          "name": "",
          "type": "bytes32"
        }
      ],
      "stateMutability": "view",
      "type": "function"
    },
    {
      "inputs": [],
      "name": "TRANSFER_EVENT_SIG",
      "outputs": [
        {
          "internalType": "bytes32",
          "name": "",
          "type": "bytes32"
        }
      ],
      "stateMutability": "view",
      "type": "function"
    },
    {
      "inputs": [
        {
          "internalType": "bytes32",
          "name": "role",
          "type": "bytes32"
        }
      ],
      "name": "getRoleAdmin",
      "outputs": [
        {
          "internalType": "bytes32",
          "name": "",
          "type": "bytes32"
        }
      ],
      "stateMutability": "view",
      "type": "function"
    },
    {
      "inputs": [
        {
          "internalType": "bytes32",
          "name": "role",
          "type": "bytes32"
        },
        {
          "internalType": "uint256",
          "name": "index",
          "type": "uint256"
        }
      ],
      "name": "getRoleMember",
      "outputs": [
        {
          "internalType": "address",
          "name": "",
          "type": "address"
        }
      ],
      "stateMutability": "view",
      "type": "function"
    },
    {
      "inputs": [
        {
          "internalType": "bytes32",
          "name": "role",
          "type": "bytes32"
        }
      ],
      "name": "getRoleMemberCount",
      "outputs": [
        {
          "internalType": "uint256",
          "name": "",
          "type": "uint256"
        }
      ],
      "stateMutability": "view",
      "type": "function"
    },
    {
      "inputs": [
        {
          "internalType": "bytes32",
          "name": "role",
          "type": "bytes32"
        },
        {
          "internalType": "address",
          "name": "account",
          "type": "address"
        }
      ],
      "name": "grantRole",
      "outputs": [],
      "stateMutability": "nonpayable",
      "type": "function"
    },
    {
      "inputs": [
        {
          "internalType": "bytes32",
          "name": "role",
          "type": "bytes32"
        },
        {
          "internalType": "address",
          "name": "account",
          "type": "address"
        }
      ],
      "name": "hasRole",
      "outputs": [
        {
          "internalType": "bool",
          "name": "",
          "type": "bool"
        }
      ],
      "stateMutability": "view",
      "type": "function"
    },
    {
      "inputs": [
        {
          "internalType": "bytes32",
          "name": "role",
          "type": "bytes32"
        },
        {
          "internalType": "address",
          "name": "account",
          "type": "address"
        }
      ],
      "name": "renounceRole",
      "outputs": [],
      "stateMutability": "nonpayable",
      "type": "function"
    },
    {
      "inputs": [
        {
          "internalType": "bytes32",
          "name": "role",
          "type": "bytes32"
        },
        {
          "internalType": "address",
          "name": "account",
          "type": "address"
        }
      ],
      "name": "revokeRole",
      "outputs": [],
      "stateMutability": "nonpayable",
      "type": "function"
    },
    {
      "inputs": [
        {
          "internalType": "address",
          "name": "_owner",
          "type": "address"
        }
      ],
      "name": "initialize",
      "outputs": [],
      "stateMutability": "nonpayable",
      "type": "function"
    },
    {
      "inputs": [
        {
          "internalType": "address",
          "name": "",
          "type": "address"
        },
        {
          "internalType": "address",
          "name": "",
          "type": "address"
        },
        {
          "internalType": "uint256",
          "name": "",
          "type": "uint256"
        },
        {
          "internalType": "bytes",
          "name": "",
          "type": "bytes"
        }
      ],
      "name": "onERC721Received",
      "outputs": [
        {
          "internalType": "bytes4",
          "name": "",
          "type": "bytes4"
        }
      ],
      "stateMutability": "nonpayable",
      "type": "function"
    },
    {
      "inputs": [
        {
          "internalType": "address",
          "name": "depositor",
          "type": "address"
        },
        {
          "internalType": "address",
          "name": "depositReceiver",
          "type": "address"
        },
        {
          "internalType": "address",
          "name": "rootToken",
          "type": "address"
        },
        {
          "internalType": "bytes",
          "name": "depositData",
          "type": "bytes"
        }
      ],
      "name": "lockTokens",
      "outputs": [],
      "stateMutability": "nonpayable",
      "type": "function"
    },
    {
      "inputs": [
        {
          "internalType": "address",
          "name": "",
          "type": "address"
        },
        {
          "internalType": "address",
          "name": "rootToken",
          "type": "address"
        },
        {
          "internalType": "bytes",
          "name": "log",
          "type": "bytes"
        }
      ],
      "name": "exitTokens",
      "outputs": [],
      "stateMutability": "nonpayable",
      "type": "function"
    }
  ],
  "bytecode": "0x60806040526002805460ff1916905534801561001a57600080fd5b506116fb8061002a6000396000f3fe608060405234801561001057600080fd5b50600436106100f55760003560e01c806391d1485411610097578063ca15c87311610066578063ca15c873146103ac578063d547741f146103c9578063e375b64e146103f5578063ec87621c14610486576100f5565b806391d1485414610336578063a217fddf14610376578063b017a30f1461037e578063c4d66de814610386576100f5565b806336568abe116100d357806336568abe14610204578063609c92b8146102305780638274664f146102385780639010d07c146102f7576100f5565b8063150b7a02146100fa578063248a9ca3146101a75780632f2ff15d146101d6575b600080fd5b61018a6004803603608081101561011057600080fd5b6001600160a01b0382358116926020810135909116916040820135919081019060808101606082013564010000000081111561014b57600080fd5b82018360208201111561015d57600080fd5b8035906020019184600183028401116401000000008311171561017f57600080fd5b50909250905061048e565b604080516001600160e01b03199092168252519081900360200190f35b6101c4600480360360208110156101bd57600080fd5b503561049f565b60408051918252519081900360200190f35b610202600480360360408110156101ec57600080fd5b50803590602001356001600160a01b03166104b7565b005b6102026004803603604081101561021a57600080fd5b50803590602001356001600160a01b0316610523565b6101c4610584565b6102026004803603606081101561024e57600080fd5b6001600160a01b03823581169260208101359091169181019060608101604082013564010000000081111561028257600080fd5b82018360208201111561029457600080fd5b803590602001918460018302840111640100000000831117156102b657600080fd5b91908080601f0160208091040260200160405190810160405280939291908181526020018383808284376000920191909152509295506105a8945050505050565b61031a6004803603604081101561030d57600080fd5b5080359060200135610912565b604080516001600160a01b039092168252519081900360200190f35b6103626004803603604081101561034c57600080fd5b50803590602001356001600160a01b0316610939565b604080519115158252519081900360200190f35b6101c4610957565b6101c461095c565b6102026004803603602081101561039c57600080fd5b50356001600160a01b0316610980565b6101c4600480360360208110156103c257600080fd5b5035610a3a565b610202600480360360408110156103df57600080fd5b50803590602001356001600160a01b0316610a51565b6102026004803603608081101561040b57600080fd5b6001600160a01b038235811692602081013582169260408201359092169181019060808101606082013564010000000081111561044757600080fd5b82018360208201111561045957600080fd5b8035906020019184600183028401116401000000008311171561047b57600080fd5b509092509050610aaa565b6101c4610c04565b630a85bd0160e11b95945050505050565b6000818152602081905260409020600201545b919050565b6000828152602081905260409020600201546104da906104d5610c16565b610939565b6105155760405162461bcd60e51b815260040180806020018281038252602f81526020018061154b602f913960400191505060405180910390fd5b61051f8282610c1b565b5050565b61052b610c16565b6001600160a01b0316816001600160a01b03161461057a5760405162461bcd60e51b815260040180806020018281038252602f815260200180611670602f913960400191505060405180910390fd5b61051f8282610c8a565b7fd4392723c111fcb98b073fe55873efb447bcd23cd3e49ec9ea2581930cd01ddc81565b6000805160206116008339815191526105c3816104d5610c16565b6001906106635760405162461bcd60e51b81526020600482019081528254600260001961010060018416150201909116046024830181905290918291604490910190849080156106545780601f1061062957610100808354040283529160200191610654565b820191906000526020600020905b81548152906001019060200180831161063757829003601f168201915b50509250505060405180910390fd5b50606061067761067284610cf9565b610d74565b905060606106988260018151811061068b57fe5b6020026020010151610d74565b90507fddf252ad1be2c89b69c2b068fc378daa952ba7f163c4a11628f55a4df523b3ef60001b6106db826000815181106106ce57fe5b6020026020010151610ef6565b146107175760405162461bcd60e51b815260040180806020018281038252602a81526020018061157a602a913960400191505060405180910390fd5b6000610729826001815181106106ce57fe5b905060006001600160a01b0316610746836002815181106106ce57fe5b6001600160a01b03161461078b5760405162461bcd60e51b81526004018080602001828103825260298152602001806116206029913960400191505060405180910390fd5b600086905060006107a2846003815181106106ce57fe5b9050816001600160a01b0316634f558e79826040518263ffffffff1660e01b81526004018082815260200191505060206040518083038186803b1580156107e857600080fd5b505afa1580156107fc573d6000803e3d6000fd5b505050506040513d602081101561081257600080fd5b50511561088e5760408051632142170760e11b81523060048201526001600160a01b038581166024830152604482018490529151918416916342842e0e9160648082019260009290919082900301818387803b15801561087157600080fd5b505af1158015610885573d6000803e3d6000fd5b50505050610907565b816001600160a01b03166340c10f1984836040518363ffffffff1660e01b815260040180836001600160a01b03166001600160a01b0316815260200182815260200192505050600060405180830381600087803b1580156108ee57600080fd5b505af1158015610902573d6000803e3d6000fd5b505050505b505050505050505050565b6000828152602081905260408120610930908363ffffffff61103e16565b90505b92915050565b6000828152602081905260408120610930908363ffffffff61104a16565b600081565b7fddf252ad1be2c89b69c2b068fc378daa952ba7f163c4a11628f55a4df523b3ef81565b60025460ff16156109c9576040805162461bcd60e51b815260206004820152600e60248201526d185b1c9958591e481a5b9a5d195960921b604482015290519081900360640190fd5b610a076040518060400160405280601781526020017f4d696e7461626c6545524337323150726564696361746500000000000000000081525061105f565b610a12600082610515565b610a2a60008051602061160083398151915282610515565b506002805460ff19166001179055565b6000818152602081905260408120610933906110fd565b600082815260208190526040902060020154610a6f906104d5610c16565b61057a5760405162461bcd60e51b81526004018080602001828103825260308152602001806115a46030913960400191505060405180910390fd5b600080516020611600833981519152610ac5816104d5610c16565b600190610b2b5760405162461bcd60e51b81526020600482019081528254600260001961010060018416150201909116046024830181905290918291604490910190849080156106545780601f1061062957610100808354040283529160200191610654565b50600083836020811015610b3e57600080fd5b5060408051913580835290519092506001600160a01b038088169289821692918b16917fe13244aa06bdc79480ed5fdc6ebe2bb37202fcdf33ecf45dc449f4201f3dc0879181900360200190a460408051632142170760e11b81526001600160a01b038981166004830152306024830152604482018490529151918716916342842e0e9160648082019260009290919082900301818387803b158015610be357600080fd5b505af1158015610bf7573d6000803e3d6000fd5b5050505050505050505050565b60008051602061160083398151915281565b335b90565b6000828152602081905260409020610c39908263ffffffff61110816565b1561051f57610c46610c16565b6001600160a01b0316816001600160a01b0316837f2f8788117e7eff1d82e926ec794901d17c78024a50270940304540a733656f0d60405160405180910390a45050565b6000828152602081905260409020610ca8908263ffffffff61111d16565b1561051f57610cb5610c16565b6001600160a01b0316816001600160a01b0316837ff6391f5c32d9c69d2a47ea670b442974b53935d1edc7fd64eb21e047a839171b60405160405180910390a45050565b610d01611476565b6000825111610d57576040805162461bcd60e51b815260206004820152601f60248201527f524c505265616465723a20494e56414c49445f42595445535f4c454e47544800604482015290519081900360640190fd5b506040805180820190915281518152602082810190820152919050565b6060610d7f82611132565b610dd0576040805162461bcd60e51b815260206004820152601860248201527f524c505265616465723a204954454d5f4e4f545f4c4953540000000000000000604482015290519081900360640190fd5b6000610ddb8361115e565b905060608167ffffffffffffffff81118015610df657600080fd5b50604051908082528060200260200182016040528015610e3057816020015b610e1d611476565b815260200190600190039081610e155790505b5090506000610e4285602001516111ea565b85519091508114610e845760405162461bcd60e51b81526004018080602001828103825260278152602001806116496027913960400191505060405180910390fd5b6000610e938660200151611283565b60208701510190506000805b85811015610eea57610eb0836111ea565b9150604051806040016040528083815260200184815250858281518110610ed357fe5b602090810291909101015291810191600101610e9f565b50929695505050505050565b6000610f0182611132565b15610f53576040805162461bcd60e51b815260206004820181905260248201527f524c505265616465723a204445434f44494e475f4c4953545f41535f55494e54604482015290519081900360640190fd5b815160211015610faa576040805162461bcd60e51b815260206004820152601e60248201527f524c505265616465723a20494e56414c49445f55494e545f4c454e4754480000604482015290519081900360640190fd5b6000610fb983602001516111ea565b83519091508114610ffb5760405162461bcd60e51b815260040180806020018281038252602781526020018061169f6027913960400191505060405180910390fd5b600061100a8460200151611283565b8451602080870151830180519394509184900392919083101561103457826020036101000a820491505b5095945050505050565b600061093083836112e6565b6000610930836001600160a01b03841661134a565b806040516020018082805190602001908083835b602083106110925780518252601f199092019160209182019101611073565b51815160209384036101000a60001901801990921691161790527f3a20494e53554646494349454e545f5045524d495353494f4e530000000000009190930190815260408051808303600519018152601a9092019052805161051f9550600194509201919050611490565b600061093382611362565b6000610930836001600160a01b038416611366565b6000610930836001600160a01b0384166113b0565b6020810151805160009190821a9060c0821015611154576000925050506104b2565b5060019392505050565b6000806000905060006111748460200151611283565b602085015185519181019250015b808210156111e157611193826111ea565b82019150808211156111d65760405162461bcd60e51b815260040180806020018281038252602c8152602001806115d4602c913960400191505060405180910390fd5b600190920191611182565b50909392505050565b80516000908190811a6080811015611205576001915061127c565b60b881101561121a57607e198101915061127c565b60c08110156112475760b78103600185019450806020036101000a8551046001820181019350505061127c565b60f881101561125c5760be198101915061127c565b60f78103600185019450806020036101000a855104600182018101935050505b5092915050565b8051600090811a608081101561129d5760009150506104b2565b60b88110806112b8575060c081108015906112b8575060f881105b156112c75760019150506104b2565b60c08110156112db5760b5190190506104b2565b60f5190190506104b2565b815460009082106113285760405162461bcd60e51b81526004018080602001828103825260228152602001806115296022913960400191505060405180910390fd5b82600001828154811061133757fe5b9060005260206000200154905092915050565b60009081526001919091016020526040902054151590565b5490565b6000611372838361134a565b6113a857508154600181810184556000848152602080822090930184905584548482528286019093526040902091909155610933565b506000610933565b6000818152600183016020526040812054801561146c57835460001980830191908101906000908790839081106113e357fe5b906000526020600020015490508087600001848154811061140057fe5b60009182526020808320909101929092558281526001898101909252604090209084019055865487908061143057fe5b60019003818190600052602060002001600090559055866001016000878152602001908152602001600020600090556001945050505050610933565b6000915050610933565b604051806040016040528060008152602001600081525090565b828054600181600116156101000203166002900490600052602060002090601f016020900481019282601f106114d157805160ff19168380011785556114fe565b828001600101855582156114fe579182015b828111156114fe5782518255916020019190600101906114e3565b5061150a92915061150e565b5090565b610c1891905b8082111561150a576000815560010161151456fe456e756d657261626c655365743a20696e646578206f7574206f6620626f756e6473416363657373436f6e74726f6c3a2073656e646572206d75737420626520616e2061646d696e20746f206772616e744d696e7461626c654552433732315072656469636174653a20494e56414c49445f5349474e4154555245416363657373436f6e74726f6c3a2073656e646572206d75737420626520616e2061646d696e20746f207265766f6b65524c505265616465723a204e554d5f4954454d535f4445434f4445445f4c454e4754485f4d49534d41544348241ecf16d79d0f8dbfb92cbc07fe17840425976cf0667f022fe9877caa831b084d696e7461626c654552433732315072656469636174653a20494e56414c49445f5245434549564552524c505265616465723a204c4953545f4445434f4445445f4c454e4754485f4d49534d41544348416363657373436f6e74726f6c3a2063616e206f6e6c792072656e6f756e636520726f6c657320666f722073656c66524c505265616465723a2055494e545f4445434f4445445f4c454e4754485f4d49534d41544348a2646970667358221220c77ca0b46bf5d0686aa5b084de31f553645c4f5fbd91b663d1ed3bc449d4b0b364736f6c63430006060033",
  "immutableReferences": {},
  "source": "pragma solidity 0.6.6;\n\nimport {IERC721Receiver} from \"@openzeppelin/contracts/token/ERC721/IERC721Receiver.sol\";\nimport {AccessControlMixin} from \"../../common/AccessControlMixin.sol\";\nimport {RLPReader} from \"../../lib/RLPReader.sol\";\nimport {IMintableERC721} from \"../RootToken/IMintableERC721.sol\";\nimport {ITokenPredicate} from \"./ITokenPredicate.sol\";\nimport {Initializable} from \"../../common/Initializable.sol\";\n\ncontract MintableERC721Predicate is ITokenPredicate, AccessControlMixin, Initializable, IERC721Receiver {\n    using RLPReader for bytes;\n    using RLPReader for RLPReader.RLPItem;\n\n    // keccak256(\"MANAGER_ROLE\")\n    bytes32 public constant MANAGER_ROLE = 0x241ecf16d79d0f8dbfb92cbc07fe17840425976cf0667f022fe9877caa831b08;\n    // keccak256(\"MintableERC721\")\n    bytes32 public constant TOKEN_TYPE = 0xd4392723c111fcb98b073fe55873efb447bcd23cd3e49ec9ea2581930cd01ddc;\n    // keccak(\"Transfer(address,address,uint256)\")\n    bytes32 public constant TRANSFER_EVENT_SIG = 0xddf252ad1be2c89b69c2b068fc378daa952ba7f163c4a11628f55a4df523b3ef;\n\n    event LockedMintableERC721(\n        address indexed depositor,\n        address indexed depositReceiver,\n        address indexed rootToken,\n        uint256 tokenId\n    );\n\n    constructor() public {}\n\n    function initialize(address _owner) external initializer {\n        _setupContractId(\"MintableERC721Predicate\");\n        _setupRole(DEFAULT_ADMIN_ROLE, _owner);\n        _setupRole(MANAGER_ROLE, _owner);\n    }\n\n    /**\n     * @notice accepts safe ERC721 transfer\n     */\n    function onERC721Received(\n        address,\n        address,\n        uint256,\n        bytes calldata\n    )\n        external\n        override\n        returns (bytes4)\n    {\n        return IERC721Receiver.onERC721Received.selector;\n    }\n\n    /**\n     * @notice Lock ERC721 tokens for deposit, callable only by manager\n     * @param depositor Address who wants to deposit token\n     * @param depositReceiver Address (address) who wants to receive token on child chain\n     * @param rootToken Token which gets deposited\n     * @param depositData ABI encoded tokenId\n     */\n    function lockTokens(\n        address depositor,\n        address depositReceiver,\n        address rootToken,\n        bytes calldata depositData\n    )\n        external\n        override\n        only(MANAGER_ROLE)\n    {\n        uint256 tokenId = abi.decode(depositData, (uint256));\n        emit LockedMintableERC721(depositor, depositReceiver, rootToken, tokenId);\n        IMintableERC721(rootToken).safeTransferFrom(depositor, address(this), tokenId);\n    }\n\n    /**\n     * @notice Validates log signature, from and to address\n     * then checks if token already exists on root chain\n     * if token exits then transfers it to withdrawer\n     * if token doesn't exit then it is minted\n     * callable only by manager\n     * @param rootToken Token which gets withdrawn\n     * @param log Valid ERC721 burn log from child chain\n     */\n    function exitTokens(\n        address,\n        address rootToken,\n        bytes memory log\n    )\n        public\n        override\n        only(MANAGER_ROLE)\n    {\n        RLPReader.RLPItem[] memory logRLPList = log.toRlpItem().toList();\n        RLPReader.RLPItem[] memory logTopicRLPList = logRLPList[1].toList(); // topics\n\n        require(\n            bytes32(logTopicRLPList[0].toUint()) == TRANSFER_EVENT_SIG, // topic0 is event sig\n            \"MintableERC721Predicate: INVALID_SIGNATURE\"\n        );\n\n        address withdrawer = address(logTopicRLPList[1].toUint()); // topic1 is from address\n\n        require(\n            address(logTopicRLPList[2].toUint()) == address(0), // topic2 is to address\n            \"MintableERC721Predicate: INVALID_RECEIVER\"\n        );\n\n        IMintableERC721 token = IMintableERC721(rootToken);\n        uint256 tokenId = logTopicRLPList[3].toUint(); // topic3 is tokenId field\n        if (token.exists(tokenId)) {\n          token.safeTransferFrom(\n              address(this),\n              withdrawer,\n              tokenId\n          );\n        } else {\n          token.mint(withdrawer, tokenId);\n        }\n    }\n}\n",
  "sourcePath": "/home/graphicaldot/Programs/Matic/pos-portal/contracts/root/TokenPredicates/MintableERC721Predicate.sol",
  "compiler": {
    "name": "solc",
    "version": "0.6.6+commit.6c089d02.Linux.g++"
  },
  "schemaVersion": "3.2.1",
  "updatedAt": "2021-02-11T18:00:51.019Z",
  "devdoc": {
    "methods": {
      "exitTokens(address,address,bytes)": {
        "params": {
          "log": "Valid ERC721 burn log from child chain",
          "rootToken": "Token which gets withdrawn"
        }
      },
      "getRoleAdmin(bytes32)": {
        "details": "Returns the admin role that controls `role`. See {grantRole} and {revokeRole}.     * To change a role's admin, use {_setRoleAdmin}."
      },
      "getRoleMember(bytes32,uint256)": {
        "details": "Returns one of the accounts that have `role`. `index` must be a value between 0 and {getRoleMemberCount}, non-inclusive.     * Role bearers are not sorted in any particular way, and their ordering may change at any point.     * WARNING: When using {getRoleMember} and {getRoleMemberCount}, make sure you perform all queries on the same block. See the following https://forum.openzeppelin.com/t/iterating-over-elements-on-enumerableset-in-openzeppelin-contracts/2296[forum post] for more information."
      },
      "getRoleMemberCount(bytes32)": {
        "details": "Returns the number of accounts that have `role`. Can be used together with {getRoleMember} to enumerate all bearers of a role."
      },
      "grantRole(bytes32,address)": {
        "details": "Grants `role` to `account`.     * If `account` had not been already granted `role`, emits a {RoleGranted} event.     * Requirements:     * - the caller must have ``role``'s admin role."
      },
      "hasRole(bytes32,address)": {
        "details": "Returns `true` if `account` has been granted `role`."
      },
      "lockTokens(address,address,address,bytes)": {
        "params": {
          "depositData": "ABI encoded tokenId",
          "depositReceiver": "Address (address) who wants to receive token on child chain",
          "depositor": "Address who wants to deposit token",
          "rootToken": "Token which gets deposited"
        }
      },
      "renounceRole(bytes32,address)": {
        "details": "Revokes `role` from the calling account.     * Roles are often managed via {grantRole} and {revokeRole}: this function's purpose is to provide a mechanism for accounts to lose their privileges if they are compromised (such as when a trusted device is misplaced).     * If the calling account had been granted `role`, emits a {RoleRevoked} event.     * Requirements:     * - the caller must be `account`."
      },
      "revokeRole(bytes32,address)": {
        "details": "Revokes `role` from `account`.     * If `account` had been granted `role`, emits a {RoleRevoked} event.     * Requirements:     * - the caller must have ``role``'s admin role."
      }
    }
  },
  "userdoc": {
    "methods": {
      "exitTokens(address,address,bytes)": {
        "notice": "Validates log signature, from and to address then checks if token already exists on root chain if token exits then transfers it to withdrawer if token doesn't exit then it is minted callable only by manager"
      },
      "lockTokens(address,address,address,bytes)": {
        "notice": "Lock ERC721 tokens for deposit, callable only by manager"
      },
      "onERC721Received(address,address,uint256,bytes)": {
        "notice": "accepts safe ERC721 transfer"
      }
    }
  }
}